{
  "_format": "hh-sol-artifact-1",
  "contractName": "StudyCafeStorage",
  "sourceName": "contracts/StudyCafeStorage.sol",
  "abi": [
    {
      "inputs": [],
      "name": "admin",
      "outputs": [
        {
          "internalType": "address",
          "name": "",
          "type": "address"
        }
      ],
      "stateMutability": "view",
      "type": "function"
    },
    {
      "inputs": [
        {
          "internalType": "address",
          "name": "",
          "type": "address"
        }
      ],
      "name": "checkInState",
      "outputs": [
        {
          "internalType": "bool",
          "name": "",
          "type": "bool"
        }
      ],
      "stateMutability": "view",
      "type": "function"
    },
    {
      "inputs": [
        {
          "internalType": "address",
          "name": "",
          "type": "address"
        }
      ],
      "name": "continuousAttendanceDays",
      "outputs": [
        {
          "internalType": "uint256",
          "name": "",
          "type": "uint256"
        }
      ],
      "stateMutability": "view",
      "type": "function"
    },
    {
      "inputs": [
        {
          "internalType": "address",
          "name": "",
          "type": "address"
        }
      ],
      "name": "customerToSeat",
      "outputs": [
        {
          "internalType": "uint256",
          "name": "",
          "type": "uint256"
        }
      ],
      "stateMutability": "view",
      "type": "function"
    },
    {
      "inputs": [],
      "name": "dailySubscriptionFee",
      "outputs": [
        {
          "internalType": "uint256",
          "name": "",
          "type": "uint256"
        }
      ],
      "stateMutability": "view",
      "type": "function"
    },
    {
      "inputs": [
        {
          "internalType": "address",
          "name": "",
          "type": "address"
        }
      ],
      "name": "lastCheckInDate",
      "outputs": [
        {
          "internalType": "uint256",
          "name": "",
          "type": "uint256"
        }
      ],
      "stateMutability": "view",
      "type": "function"
    },
    {
      "inputs": [
        {
          "internalType": "address",
          "name": "",
          "type": "address"
        }
      ],
      "name": "lastCheckInMidnightDate",
      "outputs": [
        {
          "internalType": "uint256",
          "name": "",
          "type": "uint256"
        }
      ],
      "stateMutability": "view",
      "type": "function"
    },
    {
      "inputs": [],
      "name": "monthlySubscriptionFee",
      "outputs": [
        {
          "internalType": "uint256",
          "name": "",
          "type": "uint256"
        }
      ],
      "stateMutability": "view",
      "type": "function"
    },
    {
      "inputs": [
        {
          "internalType": "uint256",
          "name": "",
          "type": "uint256"
        }
      ],
      "name": "seatToCustomer",
      "outputs": [
        {
          "internalType": "address",
          "name": "",
          "type": "address"
        }
      ],
      "stateMutability": "view",
      "type": "function"
    },
    {
      "inputs": [],
      "name": "totalSeats",
      "outputs": [
        {
          "internalType": "uint256",
          "name": "",
          "type": "uint256"
        }
      ],
      "stateMutability": "view",
      "type": "function"
    },
    {
      "inputs": [
        {
          "internalType": "address",
          "name": "",
          "type": "address"
        }
      ],
      "name": "userBalances",
      "outputs": [
        {
          "internalType": "uint256",
          "name": "",
          "type": "uint256"
        }
      ],
      "stateMutability": "view",
      "type": "function"
    },
    {
      "inputs": [
        {
          "internalType": "address",
          "name": "",
          "type": "address"
        }
      ],
      "name": "userPaybackBalances",
      "outputs": [
        {
          "internalType": "uint256",
          "name": "",
          "type": "uint256"
        }
      ],
      "stateMutability": "view",
      "type": "function"
    }
  ],
  "bytecode": "0x608060405234801561001057600080fd5b5061057d806100206000396000f3fe608060405234801561001057600080fd5b50600436106100b45760003560e01c806365a15cb71161007157806365a15cb7146101b5578063b687453c146101e5578063b86812c114610215578063d1a3c64814610233578063dfdfa03514610263578063f851a44014610293576100b4565b806308bc617f146100b95780631caa4a03146100d75780631ffc615e1461010757806326224c641461012557806335be0c04146101555780633c395aac14610185575b600080fd5b6100c16102b1565b6040516100ce91906103e3565b60405180910390f35b6100f160048036038101906100ec9190610461565b6102b7565b6040516100fe91906103e3565b60405180910390f35b61010f6102cf565b60405161011c91906103e3565b60405180910390f35b61013f600480360381019061013a9190610461565b6102d5565b60405161014c91906103e3565b60405180910390f35b61016f600480360381019061016a9190610461565b6102ed565b60405161017c91906104a9565b60405180910390f35b61019f600480360381019061019a9190610461565b61030d565b6040516101ac91906103e3565b60405180910390f35b6101cf60048036038101906101ca91906104f0565b610325565b6040516101dc919061052c565b60405180910390f35b6101ff60048036038101906101fa9190610461565b610358565b60405161020c91906103e3565b60405180910390f35b61021d610370565b60405161022a91906103e3565b60405180910390f35b61024d60048036038101906102489190610461565b610376565b60405161025a91906103e3565b60405180910390f35b61027d60048036038101906102789190610461565b61038e565b60405161028a91906103e3565b60405180910390f35b61029b6103a6565b6040516102a8919061052c565b60405180910390f35b60015481565b60066020528060005260406000206000915090505481565b60025481565b60046020528060005260406000206000915090505481565b60096020528060005260406000206000915054906101000a900460ff1681565b60056020528060005260406000206000915090505481565b600a6020528060005260406000206000915054906101000a900473ffffffffffffffffffffffffffffffffffffffff1681565b60076020528060005260406000206000915090505481565b60035481565b600b6020528060005260406000206000915090505481565b60086020528060005260406000206000915090505481565b60008054906101000a900473ffffffffffffffffffffffffffffffffffffffff1681565b6000819050919050565b6103dd816103ca565b82525050565b60006020820190506103f860008301846103d4565b92915050565b600080fd5b600073ffffffffffffffffffffffffffffffffffffffff82169050919050565b600061042e82610403565b9050919050565b61043e81610423565b811461044957600080fd5b50565b60008135905061045b81610435565b92915050565b600060208284031215610477576104766103fe565b5b60006104858482850161044c565b91505092915050565b60008115159050919050565b6104a38161048e565b82525050565b60006020820190506104be600083018461049a565b92915050565b6104cd816103ca565b81146104d857600080fd5b50565b6000813590506104ea816104c4565b92915050565b600060208284031215610506576105056103fe565b5b6000610514848285016104db565b91505092915050565b61052681610423565b82525050565b6000602082019050610541600083018461051d565b9291505056fea2646970667358221220ace2a239b352684ad02d074fc4f68bd2ebf81fa4f1ec0d11f79c0f5d023c657d64736f6c63430008110033",
  "linkReferences": {},
  "deployedLinkReferences": {}
}